:100000000C942A000C9447000C9447000C94470071
:100010000C9447000C9447000C9447000C94470044
:100020000C9447000C9447000C9447000C94470034
:100030000C9447000C9447000C9447000C94470024
:100040000C9447000C9447000C9447000C94470014
:100050000C94470011241FBECFE5D8E0DEBFCDBF12
:1000600010E0A0E6B0E0E2E2F1E002C005900D92FF
:10007000A438B107D9F710E0A4E8B0E001C01D92A0
:10008000A438B107E1F70E9449000C948F000C944A
:100090000000A09A0E946A0000E610E0CFE6D0E0DF
:1000A0000F2EF7E6EF2EF0E0FF2EF02D0E947500E8
:1000B000813329F4A89AC8010E947900F7CF8233CE
:1000C00029F4A898C7010E947900F0CFCE010E94C0
:1000D0007900ECCF87E689B988E18AB986E880BDE6
:1000E00008955D9BFECF8CB908955F9BFECF8CB1C8
:1000F00008950F931F93CF938C01FC018081882377
:1001000051F0C0E00E947100CF5FF801EC0FF11DCB
:1001100080818823B9F7CF911F910F910895F894AA
:02012000FFCF0F
:100122004C4544204F4E004C4544204F4646005318
:10013200656C6563742070726F706572206F707485
:04014200696F6E0073
:00000001FF
